{
  "_format": "hh-sol-artifact-1",
  "contractName": "FireAlertLogger",
  "sourceName": "contracts/FireAlertLogger.sol",
  "abi": [
    {
      "inputs": [
        {
          "internalType": "address",
          "name": "_authorizedBackend",
          "type": "address"
        }
      ],
      "stateMutability": "nonpayable",
      "type": "constructor"
    },
    {
      "anonymous": false,
      "inputs": [
        {
          "indexed": true,
          "internalType": "uint256",
          "name": "alertId",
          "type": "uint256"
        },
        {
          "indexed": true,
          "internalType": "string",
          "name": "deviceId",
          "type": "string"
        },
        {
          "indexed": true,
          "internalType": "uint8",
          "name": "severity",
          "type": "uint8"
        },
        {
          "indexed": false,
          "internalType": "uint256",
          "name": "timestamp",
          "type": "uint256"
        },
        {
          "indexed": false,
          "internalType": "string",
          "name": "location",
          "type": "string"
        }
      ],
      "name": "AlertLogged",
      "type": "event"
    },
    {
      "anonymous": false,
      "inputs": [
        {
          "indexed": true,
          "internalType": "uint256",
          "name": "alertId",
          "type": "uint256"
        },
        {
          "indexed": true,
          "internalType": "string",
          "name": "deviceId",
          "type": "string"
        },
        {
          "indexed": false,
          "internalType": "uint256",
          "name": "resolvedAt",
          "type": "uint256"
        }
      ],
      "name": "AlertResolved",
      "type": "event"
    },
    {
      "anonymous": false,
      "inputs": [
        {
          "indexed": true,
          "internalType": "address",
          "name": "oldBackend",
          "type": "address"
        },
        {
          "indexed": true,
          "internalType": "address",
          "name": "newBackend",
          "type": "address"
        }
      ],
      "name": "BackendUpdated",
      "type": "event"
    },
    {
      "inputs": [],
      "name": "authorizedBackend",
      "outputs": [
        {
          "internalType": "address",
          "name": "",
          "type": "address"
        }
      ],
      "stateMutability": "view",
      "type": "function"
    },
    {
      "inputs": [
        {
          "internalType": "uint256",
          "name": "_alertId",
          "type": "uint256"
        }
      ],
      "name": "getAlert",
      "outputs": [
        {
          "components": [
            {
              "internalType": "string",
              "name": "deviceId",
              "type": "string"
            },
            {
              "internalType": "int16",
              "name": "temperature",
              "type": "int16"
            },
            {
              "internalType": "uint16",
              "name": "humidity",
              "type": "uint16"
            },
            {
              "internalType": "uint16",
              "name": "smokeLevel",
              "type": "uint16"
            },
            {
              "internalType": "uint8",
              "name": "severity",
              "type": "uint8"
            },
            {
              "internalType": "string",
              "name": "location",
              "type": "string"
            },
            {
              "internalType": "int32",
              "name": "latitude",
              "type": "int32"
            },
            {
              "internalType": "int32",
              "name": "longitude",
              "type": "int32"
            },
            {
              "internalType": "uint256",
              "name": "timestamp",
              "type": "uint256"
            },
            {
              "internalType": "bool",
              "name": "resolved",
              "type": "bool"
            },
            {
              "internalType": "address",
              "name": "loggedBy",
              "type": "address"
            }
          ],
          "internalType": "struct FireAlertLogger.FireAlert",
          "name": "",
          "type": "tuple"
        }
      ],
      "stateMutability": "view",
      "type": "function"
    },
    {
      "inputs": [
        {
          "internalType": "string",
          "name": "_deviceId",
          "type": "string"
        }
      ],
      "name": "getAlertsByDevice",
      "outputs": [
        {
          "internalType": "uint256[]",
          "name": "",
          "type": "uint256[]"
        }
      ],
      "stateMutability": "view",
      "type": "function"
    },
    {
      "inputs": [
        {
          "internalType": "uint256",
          "name": "_offset",
          "type": "uint256"
        },
        {
          "internalType": "uint256",
          "name": "_limit",
          "type": "uint256"
        }
      ],
      "name": "getAlertsPaginated",
      "outputs": [
        {
          "components": [
            {
              "internalType": "string",
              "name": "deviceId",
              "type": "string"
            },
            {
              "internalType": "int16",
              "name": "temperature",
              "type": "int16"
            },
            {
              "internalType": "uint16",
              "name": "humidity",
              "type": "uint16"
            },
            {
              "internalType": "uint16",
              "name": "smokeLevel",
              "type": "uint16"
            },
            {
              "internalType": "uint8",
              "name": "severity",
              "type": "uint8"
            },
            {
              "internalType": "string",
              "name": "location",
              "type": "string"
            },
            {
              "internalType": "int32",
              "name": "latitude",
              "type": "int32"
            },
            {
              "internalType": "int32",
              "name": "longitude",
              "type": "int32"
            },
            {
              "internalType": "uint256",
              "name": "timestamp",
              "type": "uint256"
            },
            {
              "internalType": "bool",
              "name": "resolved",
              "type": "bool"
            },
            {
              "internalType": "address",
              "name": "loggedBy",
              "type": "address"
            }
          ],
          "internalType": "struct FireAlertLogger.FireAlert[]",
          "name": "result",
          "type": "tuple[]"
        },
        {
          "internalType": "uint256",
          "name": "total",
          "type": "uint256"
        }
      ],
      "stateMutability": "view",
      "type": "function"
    },
    {
      "inputs": [],
      "name": "getAllAlerts",
      "outputs": [
        {
          "components": [
            {
              "internalType": "string",
              "name": "deviceId",
              "type": "string"
            },
            {
              "internalType": "int16",
              "name": "temperature",
              "type": "int16"
            },
            {
              "internalType": "uint16",
              "name": "humidity",
              "type": "uint16"
            },
            {
              "internalType": "uint16",
              "name": "smokeLevel",
              "type": "uint16"
            },
            {
              "internalType": "uint8",
              "name": "severity",
              "type": "uint8"
            },
            {
              "internalType": "string",
              "name": "location",
              "type": "string"
            },
            {
              "internalType": "int32",
              "name": "latitude",
              "type": "int32"
            },
            {
              "internalType": "int32",
              "name": "longitude",
              "type": "int32"
            },
            {
              "internalType": "uint256",
              "name": "timestamp",
              "type": "uint256"
            },
            {
              "internalType": "bool",
              "name": "resolved",
              "type": "bool"
            },
            {
              "internalType": "address",
              "name": "loggedBy",
              "type": "address"
            }
          ],
          "internalType": "struct FireAlertLogger.FireAlert[]",
          "name": "",
          "type": "tuple[]"
        }
      ],
      "stateMutability": "view",
      "type": "function"
    },
    {
      "inputs": [
        {
          "internalType": "uint8",
          "name": "_severity",
          "type": "uint8"
        }
      ],
      "name": "getSeverityLabel",
      "outputs": [
        {
          "internalType": "string",
          "name": "",
          "type": "string"
        }
      ],
      "stateMutability": "pure",
      "type": "function"
    },
    {
      "inputs": [],
      "name": "getTotalAlerts",
      "outputs": [
        {
          "internalType": "uint256",
          "name": "",
          "type": "uint256"
        }
      ],
      "stateMutability": "view",
      "type": "function"
    },
    {
      "inputs": [
        {
          "internalType": "string",
          "name": "_deviceId",
          "type": "string"
        },
        {
          "internalType": "int16",
          "name": "_temperature",
          "type": "int16"
        },
        {
          "internalType": "uint16",
          "name": "_humidity",
          "type": "uint16"
        },
        {
          "internalType": "uint16",
          "name": "_smokeLevel",
          "type": "uint16"
        },
        {
          "internalType": "uint8",
          "name": "_severity",
          "type": "uint8"
        },
        {
          "internalType": "string",
          "name": "_location",
          "type": "string"
        },
        {
          "internalType": "int32",
          "name": "_latitude",
          "type": "int32"
        },
        {
          "internalType": "int32",
          "name": "_longitude",
          "type": "int32"
        },
        {
          "internalType": "uint256",
          "name": "_timestamp",
          "type": "uint256"
        }
      ],
      "name": "logAlert",
      "outputs": [
        {
          "internalType": "uint256",
          "name": "alertId",
          "type": "uint256"
        }
      ],
      "stateMutability": "nonpayable",
      "type": "function"
    },
    {
      "inputs": [],
      "name": "owner",
      "outputs": [
        {
          "internalType": "address",
          "name": "",
          "type": "address"
        }
      ],
      "stateMutability": "view",
      "type": "function"
    },
    {
      "inputs": [
        {
          "internalType": "uint256",
          "name": "_alertId",
          "type": "uint256"
        }
      ],
      "name": "resolveAlert",
      "outputs": [],
      "stateMutability": "nonpayable",
      "type": "function"
    },
    {
      "inputs": [
        {
          "internalType": "uint256",
          "name": "",
          "type": "uint256"
        }
      ],
      "name": "resolvedAlerts",
      "outputs": [
        {
          "internalType": "bool",
          "name": "",
          "type": "bool"
        }
      ],
      "stateMutability": "view",
      "type": "function"
    },
    {
      "inputs": [
        {
          "internalType": "address",
          "name": "_newBackend",
          "type": "address"
        }
      ],
      "name": "setAuthorizedBackend",
      "outputs": [],
      "stateMutability": "nonpayable",
      "type": "function"
    },
    {
      "inputs": [
        {
          "internalType": "address",
          "name": "_newOwner",
          "type": "address"
        }
      ],
      "name": "transferOwnership",
      "outputs": [],
      "stateMutability": "nonpayable",
      "type": "function"
    }
  ],
  "bytecode": "0x608060405234801561001057600080fd5b50604051611b52380380611b5283398101604081905261002f916100ab565b6001600160a01b0381166100785760405162461bcd60e51b815260206004820152600c60248201526b5a65726f206164647265737360a01b604482015260640160405180910390fd5b60008054336001600160a01b031991821617909155600180549091166001600160a01b03929092169190911790556100db565b6000602082840312156100bd57600080fd5b81516001600160a01b03811681146100d457600080fd5b9392505050565b611a68806100ea6000396000f3fe608060405234801561001057600080fd5b50600436106100cf5760003560e01c80638da5cb5b1161008c578063c1be76d711610066578063c1be76d7146101d9578063d6fd7a5b146101e1578063ee4efd4914610214578063f2fde38b1461023557600080fd5b80638da5cb5b14610193578063a1794359146101a6578063afcba247146101c657600080fd5b8063074a6753146100d45780630b0d7376146100f25780632e0e053f1461011257806349430bcf146101275780634b57c150146101525780638508188614610173575b600080fd5b6100dc610248565b6040516100e991906114e2565b60405180910390f35b61010561010036600461153e565b61045d565b6040516100e99190611580565b6101256101203660046115c4565b6104e1565b005b60015461013a906001600160a01b031681565b6040516001600160a01b0390911681526020016100e9565b610165610160366004611617565b6106b8565b6040519081526020016100e9565b6101866101813660046115c4565b610b36565b6040516100e991906116fe565b60005461013a906001600160a01b031681565b6101b96101b4366004611711565b610d62565b6040516100e9919061172c565b6101256101d436600461173f565b610e7d565b600254610165565b6102046101ef3660046115c4565b60046020526000908152604090205460ff1681565b60405190151581526020016100e9565b610227610222366004611768565b610f64565b6040516100e992919061178a565b61012561024336600461173f565b611255565b60606002805480602002602001604051908101604052809291908181526020016000905b828210156104545783829060005260206000209060060201604051806101600160405290816000820180546102a0906117ac565b80601f01602080910402602001604051908101604052809291908181526020018280546102cc906117ac565b80156103195780601f106102ee57610100808354040283529160200191610319565b820191906000526020600020905b8154815290600101906020018083116102fc57829003601f168201915b50505091835250506001828101549081900b602083015261ffff62010000820481166040840152600160201b820416606083015260ff600160301b90910416608082015260028201805460a090920191610372906117ac565b80601f016020809104026020016040519081016040528092919081815260200182805461039e906117ac565b80156103eb5780601f106103c0576101008083540402835291602001916103eb565b820191906000526020600020905b8154815290600101906020018083116103ce57829003601f168201915b505050918352505060038281015480820b602080850191909152600160201b90910490910b60408301526004830154606083015260059092015460ff81161515608083015261010090046001600160a01b031660a090910152908252600192909201910161026c565b50505050905090565b60606003600084846040516104739291906117e6565b604051809103902081526020019081526020016000208054806020026020016040519081016040528092919081815260200182805480156104d357602002820191906000526020600020905b8154815260200190600101908083116104bf575b505050505090505b92915050565b6001546001600160a01b031633148061050457506000546001600160a01b031633145b6105465760405162461bcd60e51b815260206004820152600e60248201526d139bdd08185d5d1a1bdc9a5e995960921b60448201526064015b60405180910390fd5b60025481106105895760405162461bcd60e51b815260206004820152600f60248201526e105b195c9d081b9bdd08199bdd5b99608a1b604482015260640161053d565b6002818154811061059c5761059c6117f6565b600091825260209091206005600690920201015460ff16156105f35760405162461bcd60e51b815260206004820152601060248201526f105b1c9958591e481c995cdbdb1d995960821b604482015260640161053d565b600160028281548110610608576106086117f6565b60009182526020808320600560069093020191909101805493151560ff199485161790558382526004905260409020805490911660011790556002805482908110610655576106556117f6565b9060005260206000209060060201600001604051610673919061180c565b6040518091039020817f5b4ed39885f1ae5c0b24b0b589761b11cfaad8eaaae7a4e19aa88e1d097c0e05426040516106ad91815260200190565b60405180910390a350565b6001546000906001600160a01b03163314806106de57506000546001600160a01b031633145b61071b5760405162461bcd60e51b815260206004820152600e60248201526d139bdd08185d5d1a1bdc9a5e995960921b604482015260640161053d565b8a61075d5760405162461bcd60e51b815260206004820152601260248201527111195d9a58d9481251081c995c5d5a5c995960721b604482015260640161053d565b8461079e5760405162461bcd60e51b8152602060048201526011602482015270131bd8d85d1a5bdb881c995c5d5a5c9959607a1b604482015260640161053d565b60048760ff1611156107e15760405162461bcd60e51b815260206004820152600c60248201526b14d95d995c9a5d1e480c0b4d60a21b604482015260640161053d565b6103ff8861ffff16111561082c5760405162461bcd60e51b8152602060048201526012602482015271536d6f6b65206f7574206f662072616e676560701b604482015260640161053d565b600082116108705760405162461bcd60e51b81526020600482015260116024820152700496e76616c69642074696d657374616d7607c1b604482015260640161053d565b600280549050905060026040518061016001604052808e8e8080601f016020809104026020016040519081016040528093929190818152602001838380828437600081840152601f19601f8201169050808301925050505050505081526020018c60010b81526020018b61ffff1681526020018a61ffff1681526020018960ff16815260200188888080601f0160208091040260200160405190810160405280939291908181526020018383808284376000920182905250938552505050600388810b6020808501919091529088900b604084015260608301879052608083018290523360a090930192909252835460018101855593815220815191926006020190819061097e90826118e7565b50602082015160018201805460408501516060860151608087015160ff16600160301b0266ff0000000000001961ffff928316600160201b021666ffffff0000000019938316620100000263ffffffff19909516929096169190911792909217169290921791909117905560a082015160028201906109fd90826118e7565b5060c08201516003808301805460e086015163ffffffff908116600160201b0267ffffffffffffffff199092169416939093179290921790915561010080840151600484015561012084015160059093018054610140909501516001600160a01b0316909102610100600160a81b0319931515939093166001600160a81b03199094169390931791909117909155604051600090610a9e908f908f906117e6565b60408051918290039091208252602080830193909352908101600090812080546001810182559082529290209091018290555160ff881690610ae3908e908e906117e6565b6040518091039020827fd837ae0e197258983bea29471cd46463301147d1a04022fa8e25a571fed975a4858a8a604051610b1f939291906119a7565b60405180910390a49b9a5050505050505050505050565b610b3e611302565b6002548210610b815760405162461bcd60e51b815260206004820152600f60248201526e105b195c9d081b9bdd08199bdd5b99608a1b604482015260640161053d565b60028281548110610b9457610b946117f6565b906000526020600020906006020160405180610160016040529081600082018054610bbe906117ac565b80601f0160208091040260200160405190810160405280929190818152602001828054610bea906117ac565b8015610c375780601f10610c0c57610100808354040283529160200191610c37565b820191906000526020600020905b815481529060010190602001808311610c1a57829003601f168201915b50505091835250506001828101549081900b602083015261ffff62010000820481166040840152600160201b820416606083015260ff600160301b90910416608082015260028201805460a090920191610c90906117ac565b80601f0160208091040260200160405190810160405280929190818152602001828054610cbc906117ac565b8015610d095780601f10610cde57610100808354040283529160200191610d09565b820191906000526020600020905b815481529060010190602001808311610cec57829003601f168201915b505050918352505060038281015480820b6020840152600160201b9004900b60408201526004820154606082015260059091015460ff81161515608083015261010090046001600160a01b031660a09091015292915050565b60608160ff16600003610d91575050604080518082019091526006815265139bdc9b585b60d21b602082015290565b8160ff16600103610dbb5750506040805180820190915260038152624c6f7760e81b602082015290565b8160ff16600203610de85750506040805180820190915260068152654d656469756d60d01b602082015290565b8160ff16600303610e13575050604080518082019091526004815263090d2ced60e31b602082015290565b8160ff16600403610e4257505060408051808201909152600881526710dc9a5d1a58d85b60c21b602082015290565b60405162461bcd60e51b815260206004820152601060248201526f496e76616c696420736576657269747960801b604482015260640161053d565b6000546001600160a01b03163314610ec35760405162461bcd60e51b81526020600482015260096024820152682737ba1037bbb732b960b91b604482015260640161053d565b6001600160a01b038116610f085760405162461bcd60e51b815260206004820152600c60248201526b5a65726f206164647265737360a01b604482015260640161053d565b6001546040516001600160a01b038084169216907f37f6c561371bb449a598aaf7e5528fc87ad233e82669756cd67fec9c5f665a7b90600090a3600180546001600160a01b0319166001600160a01b0392909216919091179055565b600254606090808410610faa576040805160008082526020820190925290610fa2565b610f8f611302565b815260200190600190039081610f875790505b50915061124e565b6000610fb684866119f3565b905081811115610fc35750805b610fcd8582611a06565b67ffffffffffffffff811115610fe557610fe5611882565b60405190808252806020026020018201604052801561101e57816020015b61100b611302565b8152602001906001900390816110035790505b50925060005b61102e8683611a06565b81101561124b57600261104182886119f3565b81548110611051576110516117f6565b90600052602060002090600602016040518061016001604052908160008201805461107b906117ac565b80601f01602080910402602001604051908101604052809291908181526020018280546110a7906117ac565b80156110f45780601f106110c9576101008083540402835291602001916110f4565b820191906000526020600020905b8154815290600101906020018083116110d757829003601f168201915b50505091835250506001828101549081900b602083015261ffff62010000820481166040840152600160201b820416606083015260ff600160301b90910416608082015260028201805460a09092019161114d906117ac565b80601f0160208091040260200160405190810160405280929190818152602001828054611179906117ac565b80156111c65780601f1061119b576101008083540402835291602001916111c6565b820191906000526020600020905b8154815290600101906020018083116111a957829003601f168201915b505050918352505060038281015480820b6020840152600160201b9004900b60408201526004820154606082015260059091015460ff81161515608083015261010090046001600160a01b031660a090910152845185908390811061122d5761122d6117f6565b6020026020010181905250808061124390611a19565b915050611024565b50505b9250929050565b6000546001600160a01b0316331461129b5760405162461bcd60e51b81526020600482015260096024820152682737ba1037bbb732b960b91b604482015260640161053d565b6001600160a01b0381166112e05760405162461bcd60e51b815260206004820152600c60248201526b5a65726f206164647265737360a01b604482015260640161053d565b600080546001600160a01b0319166001600160a01b0392909216919091179055565b604080516101608101825260608082526000602083018190529282018390528082018390526080820183905260a082015260c0810182905260e081018290526101008101829052610120810182905261014081019190915290565b6000815180845260005b8181101561138357602081850181015186830182015201611367565b506000602082860101526020601f19601f83011685010191505092915050565b600061016082518185526113b98286018261135d565b91505060208301516113d0602086018260010b9052565b5060408301516113e6604086018261ffff169052565b5060608301516113fc606086018261ffff169052565b506080830151611411608086018260ff169052565b5060a083015184820360a0860152611429828261135d565b91505060c083015161144060c086018260030b9052565b5060e083015161145560e086018260030b9052565b50610100838101519085015261012080840151151590850152610140928301516001600160a01b031692909301919091525090565b600082825180855260208086019550808260051b84010181860160005b848110156114d557601f198684030189526114c38383516113a3565b988401989250908301906001016114a7565b5090979650505050505050565b6020815260006114f5602083018461148a565b9392505050565b60008083601f84011261150e57600080fd5b50813567ffffffffffffffff81111561152657600080fd5b60208301915083602082850101111561124e57600080fd5b6000806020838503121561155157600080fd5b823567ffffffffffffffff81111561156857600080fd5b611574858286016114fc565b90969095509350505050565b6020808252825182820181905260009190848201906040850190845b818110156115b85783518352928401929184019160010161159c565b50909695505050505050565b6000602082840312156115d657600080fd5b5035919050565b803561ffff811681146115ef57600080fd5b919050565b803560ff811681146115ef57600080fd5b8035600381900b81146115ef57600080fd5b60008060008060008060008060008060006101208c8e03121561163957600080fd5b67ffffffffffffffff808d35111561165057600080fd5b61165d8e8e358f016114fc565b909c509a5060208d0135600181900b811461167757600080fd5b995061168560408e016115dd565b985061169360608e016115dd565b97506116a160808e016115f4565b96508060a08e013511156116b457600080fd5b506116c58d60a08e01358e016114fc565b90955093506116d660c08d01611605565b92506116e460e08d01611605565b91506101008c013590509295989b509295989b9093969950565b6020815260006114f560208301846113a3565b60006020828403121561172357600080fd5b6114f5826115f4565b6020815260006114f5602083018461135d565b60006020828403121561175157600080fd5b81356001600160a01b03811681146114f557600080fd5b6000806040838503121561177b57600080fd5b50508035926020909101359150565b60408152600061179d604083018561148a565b90508260208301529392505050565b600181811c908216806117c057607f821691505b6020821081036117e057634e487b7160e01b600052602260045260246000fd5b50919050565b8183823760009101908152919050565b634e487b7160e01b600052603260045260246000fd5b600080835461181a816117ac565b60018281168015611832576001811461184757611876565b60ff1984168752821515830287019450611876565b8760005260208060002060005b8581101561186d5781548a820152908401908201611854565b50505082870194505b50929695505050505050565b634e487b7160e01b600052604160045260246000fd5b601f8211156118e257600081815260208120601f850160051c810160208610156118bf5750805b601f850160051c820191505b818110156118de578281556001016118cb565b5050505b505050565b815167ffffffffffffffff81111561190157611901611882565b6119158161190f84546117ac565b84611898565b602080601f83116001811461194a57600084156119325750858301515b600019600386901b1c1916600185901b1785556118de565b600085815260208120601f198616915b828110156119795788860151825594840194600190910190840161195a565b50858210156119975787850151600019600388901b60f8161c191681555b5050505050600190811b01905550565b83815260406020820152816040820152818360608301376000818301606090810191909152601f909201601f1916010192915050565b634e487b7160e01b600052601160045260246000fd5b808201808211156104db576104db6119dd565b818103818111156104db576104db6119dd565b600060018201611a2b57611a2b6119dd565b506001019056fea2646970667358221220521eb83478df49191a451a0b63598f568d02b88a8e622fb9f6b8ecde5211a96764736f6c63430008130033",
  "linkReferences": {},
  "deployedLinkReferences": {}
}